{
  "abi": [
    {
      "anonymous": false,
      "inputs": [
        {
          "indexed": false,
          "internalType": "uint256",
          "name": "amount",
          "type": "uint256"
        },
        {
          "indexed": false,
          "internalType": "address",
          "name": "exchange",
          "type": "address"
        }
      ],
      "name": "CaleeResponse",
      "type": "event"
    },
    {
      "anonymous": false,
      "inputs": [
        {
          "indexed": false,
          "internalType": "uint256",
          "name": "gain",
          "type": "uint256"
        },
        {
          "indexed": false,
          "internalType": "address",
          "name": "token",
          "type": "address"
        },
        {
          "indexed": false,
          "internalType": "address",
          "name": "initiator",
          "type": "address"
        }
      ],
      "name": "arbSuccesful",
      "type": "event"
    },
    {
      "anonymous": false,
      "inputs": [
        {
          "indexed": false,
          "internalType": "address",
          "name": "owner",
          "type": "address"
        },
        {
          "indexed": false,
          "internalType": "bool",
          "name": "cashOut",
          "type": "bool"
        }
      ],
      "name": "cashoutChanged",
      "type": "event"
    },
    {
      "anonymous": false,
      "inputs": [
        {
          "indexed": false,
          "internalType": "address",
          "name": "oldOwner",
          "type": "address"
        },
        {
          "indexed": false,
          "internalType": "address",
          "name": "newOwner",
          "type": "address"
        }
      ],
      "name": "ownerChanged",
      "type": "event"
    },
    {
      "anonymous": false,
      "inputs": [
        {
          "indexed": false,
          "internalType": "address",
          "name": "token",
          "type": "address"
        },
        {
          "indexed": false,
          "internalType": "address",
          "name": "to",
          "type": "address"
        }
      ],
      "name": "transferSent",
      "type": "event"
    },
    {
      "inputs": [
        {
          "internalType": "address",
          "name": "",
          "type": "address"
        },
        {
          "internalType": "uint256",
          "name": "",
          "type": "uint256"
        },
        {
          "internalType": "uint256",
          "name": "",
          "type": "uint256"
        },
        {
          "internalType": "bytes",
          "name": "data",
          "type": "bytes"
        }
      ],
      "name": "BiswapCall",
      "outputs": [],
      "stateMutability": "nonpayable",
      "type": "function"
    },
    {
      "inputs": [
        {
          "internalType": "address",
          "name": "",
          "type": "address"
        },
        {
          "internalType": "uint256",
          "name": "",
          "type": "uint256"
        },
        {
          "internalType": "uint256",
          "name": "",
          "type": "uint256"
        },
        {
          "internalType": "bytes",
          "name": "data",
          "type": "bytes"
        }
      ],
      "name": "SwapCall",
      "outputs": [],
      "stateMutability": "nonpayable",
      "type": "function"
    },
    {
      "inputs": [
        {
          "internalType": "address",
          "name": "",
          "type": "address"
        },
        {
          "internalType": "uint256",
          "name": "",
          "type": "uint256"
        },
        {
          "internalType": "uint256",
          "name": "",
          "type": "uint256"
        },
        {
          "internalType": "bytes",
          "name": "data",
          "type": "bytes"
        }
      ],
      "name": "apeCall",
      "outputs": [],
      "stateMutability": "nonpayable",
      "type": "function"
    },
    {
      "inputs": [
        {
          "internalType": "address",
          "name": "",
          "type": "address"
        },
        {
          "internalType": "uint256",
          "name": "",
          "type": "uint256"
        },
        {
          "internalType": "uint256",
          "name": "",
          "type": "uint256"
        },
        {
          "internalType": "bytes",
          "name": "data",
          "type": "bytes"
        }
      ],
      "name": "babyCall",
      "outputs": [],
      "stateMutability": "nonpayable",
      "type": "function"
    },
    {
      "inputs": [
        {
          "internalType": "bool",
          "name": "_method",
          "type": "bool"
        }
      ],
      "name": "changeCashout",
      "outputs": [],
      "stateMutability": "nonpayable",
      "type": "function"
    },
    {
      "inputs": [
        {
          "internalType": "address",
          "name": "_owner",
          "type": "address"
        }
      ],
      "name": "changeOwner",
      "outputs": [],
      "stateMutability": "nonpayable",
      "type": "function"
    },
    {
      "inputs": [
        {
          "internalType": "address",
          "name": "",
          "type": "address"
        },
        {
          "internalType": "uint256",
          "name": "",
          "type": "uint256"
        },
        {
          "internalType": "uint256",
          "name": "",
          "type": "uint256"
        },
        {
          "internalType": "bytes",
          "name": "data",
          "type": "bytes"
        }
      ],
      "name": "fstswapCall",
      "outputs": [],
      "stateMutability": "nonpayable",
      "type": "function"
    },
    {
      "inputs": [
        {
          "internalType": "address",
          "name": "",
          "type": "address"
        },
        {
          "internalType": "uint256",
          "name": "",
          "type": "uint256"
        },
        {
          "internalType": "uint256",
          "name": "",
          "type": "uint256"
        },
        {
          "internalType": "bytes",
          "name": "data",
          "type": "bytes"
        }
      ],
      "name": "jetswapCall",
      "outputs": [],
      "stateMutability": "nonpayable",
      "type": "function"
    },
    {
      "inputs": [
        {
          "internalType": "address",
          "name": "",
          "type": "address"
        },
        {
          "internalType": "uint256",
          "name": "",
          "type": "uint256"
        },
        {
          "internalType": "uint256",
          "name": "",
          "type": "uint256"
        },
        {
          "internalType": "bytes",
          "name": "data",
          "type": "bytes"
        }
      ],
      "name": "nomiswapCall",
      "outputs": [],
      "stateMutability": "nonpayable",
      "type": "function"
    },
    {
      "inputs": [],
      "name": "owner",
      "outputs": [
        {
          "internalType": "address",
          "name": "",
          "type": "address"
        }
      ],
      "stateMutability": "view",
      "type": "function"
    },
    {
      "inputs": [
        {
          "internalType": "address",
          "name": "",
          "type": "address"
        },
        {
          "internalType": "uint256",
          "name": "",
          "type": "uint256"
        },
        {
          "internalType": "uint256",
          "name": "",
          "type": "uint256"
        },
        {
          "internalType": "bytes",
          "name": "data",
          "type": "bytes"
        }
      ],
      "name": "pancakeCall",
      "outputs": [],
      "stateMutability": "nonpayable",
      "type": "function"
    },
    {
      "inputs": [
        {
          "internalType": "address",
          "name": "",
          "type": "address"
        },
        {
          "internalType": "uint256",
          "name": "",
          "type": "uint256"
        },
        {
          "internalType": "uint256",
          "name": "",
          "type": "uint256"
        },
        {
          "internalType": "bytes",
          "name": "data",
          "type": "bytes"
        }
      ],
      "name": "safeswapCall",
      "outputs": [],
      "stateMutability": "nonpayable",
      "type": "function"
    },
    {
      "inputs": [
        {
          "internalType": "address payable",
          "name": "recipient",
          "type": "address"
        },
        {
          "internalType": "uint256",
          "name": "amount",
          "type": "uint256"
        }
      ],
      "name": "sendCoin",
      "outputs": [],
      "stateMutability": "nonpayable",
      "type": "function"
    },
    {
      "inputs": [
        {
          "internalType": "address",
          "name": "tokenAdd",
          "type": "address"
        },
        {
          "internalType": "address",
          "name": "reciepient",
          "type": "address"
        },
        {
          "internalType": "uint256",
          "name": "amount",
          "type": "uint256"
        }
      ],
      "name": "sendToken",
      "outputs": [],
      "stateMutability": "nonpayable",
      "type": "function"
    },
    {
      "inputs": [
        {
          "internalType": "address",
          "name": "skimPair",
          "type": "address"
        }
      ],
      "name": "skim",
      "outputs": [],
      "stateMutability": "nonpayable",
      "type": "function"
    },
    {
      "inputs": [
        {
          "internalType": "uint256",
          "name": "amount0",
          "type": "uint256"
        },
        {
          "internalType": "uint256",
          "name": "amount1",
          "type": "uint256"
        },
        {
          "internalType": "address",
          "name": "_token",
          "type": "address"
        },
        {
          "internalType": "bytes",
          "name": "data",
          "type": "bytes"
        }
      ],
      "name": "start",
      "outputs": [],
      "stateMutability": "nonpayable",
      "type": "function"
    },
    {
      "inputs": [
        {
          "internalType": "address",
          "name": "",
          "type": "address"
        },
        {
          "internalType": "uint256",
          "name": "",
          "type": "uint256"
        },
        {
          "internalType": "uint256",
          "name": "",
          "type": "uint256"
        },
        {
          "internalType": "bytes",
          "name": "data",
          "type": "bytes"
        }
      ],
      "name": "swapV2Call",
      "outputs": [],
      "stateMutability": "nonpayable",
      "type": "function"
    },
    {
      "inputs": [
        {
          "internalType": "address",
          "name": "",
          "type": "address"
        },
        {
          "internalType": "uint256",
          "name": "",
          "type": "uint256"
        },
        {
          "internalType": "uint256",
          "name": "",
          "type": "uint256"
        },
        {
          "internalType": "bytes",
          "name": "data",
          "type": "bytes"
        }
      ],
      "name": "uniswapV2Call",
      "outputs": [],
      "stateMutability": "nonpayable",
      "type": "function"
    },
    {
      "inputs": [
        {
          "internalType": "bytes",
          "name": "data",
          "type": "bytes"
        }
      ],
      "name": "unpack",
      "outputs": [
        {
          "internalType": "address[]",
          "name": "routers",
          "type": "address[]"
        },
        {
          "internalType": "bytes[]",
          "name": "bytesList",
          "type": "bytes[]"
        },
        {
          "internalType": "address",
          "name": "pairAddress",
          "type": "address"
        },
        {
          "internalType": "uint256",
          "name": "amount",
          "type": "uint256"
        },
        {
          "internalType": "uint256",
          "name": "fee",
          "type": "uint256"
        }
      ],
      "stateMutability": "pure",
      "type": "function"
    },
    {
      "stateMutability": "payable",
      "type": "receive"
    }
  ],
  "bytecode": "608060405234801561001057600080fd5b50600080546001600160a01b031916331790556001805460ff60a01b1916600160a01b17905561158f806100456000396000f3fe6080604052600436106101175760003560e01c806384800812116100a0578063af02f2b511610064578063af02f2b514610237578063b2ff9f261461015d578063bc25cf7714610257578063becda3631461015d578063fdb610cd1461015d57600080fd5b8063848008121461015d57806388f9eddd1461015d5780638da5cb5b146101bf57806390b98a11146101f7578063a6f9dae11461021757600080fd5b806322109682116100e7578063221096821461015d5780632fdcfbd21461019f5780633cc9c6b41461015d5780633fc016851461015d5780635b3bc4fe1461015d57600080fd5b806217ea801461012357806310d1e85c1461015d57806310f2aa411461017f578063110c03de1461015d57600080fd5b3661011e57005b600080fd5b34801561012f57600080fd5b5061014361013e366004610e7d565b610277565b604051610154959493929190610f5a565b60405180910390f35b34801561016957600080fd5b5061017d610178366004610fff565b6102a5565b005b34801561018b57600080fd5b5061017d61019a366004611095565b6102b6565b3480156101ab57600080fd5b5061017d6101ba3660046110f8565b61048f565b3480156101cb57600080fd5b506000546101df906001600160a01b031681565b6040516001600160a01b039091168152602001610154565b34801561020357600080fd5b5061017d610212366004611139565b6104b6565b34801561022357600080fd5b5061017d610232366004611165565b6104db565b34801561024357600080fd5b5061017d610252366004611190565b610514565b34801561026357600080fd5b5061017d610272366004611165565b610549565b6060806000806000858060200190518101906102939190611250565b939a9299509097509550909350915050565b6102af828261059e565b5050505050565b60006102c182610277565b505092505050806001600160a01b0316630dfe16816040518163ffffffff1660e01b8152600401602060405180830381865afa158015610305573d6000803e3d6000fd5b505050506040513d601f19601f820116820180604052508101906103299190611388565b6001600160a01b0316836001600160a01b031614806103ba5750806001600160a01b031663d21220a76040518163ffffffff1660e01b8152600401602060405180830381865afa158015610381573d6000803e3d6000fd5b505050506040513d601f19601f820116820180604052508101906103a59190611388565b6001600160a01b0316836001600160a01b0316145b61040b5760405162461bcd60e51b815260206004820152601860248201527f496e636f7272656374205061697220666f7220746f6b656e000000000000000060448201526064015b60405180910390fd5b600180546001600160a01b0319166001600160a01b038581169190911790915560405163022c0d9f60e01b81529082169063022c0d9f906104569088908890309088906004016113a5565b600060405180830381600087803b15801561047057600080fd5b505af1158015610484573d6000803e3d6000fd5b505050505050505050565b6000546001600160a01b031633146104a657600080fd5b6104b1838383610658565b505050565b6000546001600160a01b031633146104cd57600080fd5b6104d782826107c1565b5050565b6000546001600160a01b031633146104f257600080fd5b600080546001600160a01b0319166001600160a01b0392909216919091179055565b6000546001600160a01b0316331461052b57600080fd5b60018054911515600160a01b0260ff60a01b19909216919091179055565b60405163bc25cf7760e01b81523360048201526001600160a01b0382169063bc25cf7790602401600060405180830381600087803b15801561058a57600080fd5b505af11580156102af573d6000803e3d6000fd5b60008060008060006105e587878080601f01602080910402602001604051908101604052809392919081815260200183838082843760009201919091525061027792505050565b94509450945094509450826001600160a01b0316336001600160a01b0316146106435760405162461bcd60e51b815260206004820152601060248201526f2337b93134b23232b71021b0b63632b960811b6044820152606401610402565b61064f8585848461083e565b50505050505050565b6040516370a0823160e01b815230600482015281906001600160a01b038516906370a0823190602401602060405180830381865afa15801561069e573d6000803e3d6000fd5b505050506040513d601f19601f820116820180604052508101906106c291906113dc565b10156107055760405162461bcd60e51b8152602060048201526012602482015271496e73756666696369656e742046756e647360701b6044820152606401610402565b60405163a9059cbb60e01b81526001600160a01b0383811660048301526024820183905284169063a9059cbb906044016020604051808303816000875af1158015610754573d6000803e3d6000fd5b505050506040513d601f19601f8201168201806040525081019061077891906113f5565b50604080516001600160a01b038086168252841660208201527f81ff37c0a846f0fa29fd65bc885ac344052231414004d0e16a59678c4018b3a3910160405180910390a1505050565b6040516001600160a01b0383169082156108fc029083906000818181858888f193505050501580156107f7573d6000803e3d6000fd5b5060408051600081526001600160a01b03841660208201527f81ff37c0a846f0fa29fd65bc885ac344052231414004d0e16a59678c4018b3a3910160405180910390a15050565b600060606000855187511461088b5760405162461bcd60e51b8152602060048201526013602482015272696e636f6e677275656e74206172726179732160681b6044820152606401610402565b604080518681523360208201527fe6721a7a09bf2789e54804e7e36bceb8bf71e370eafc03b486c7f706a50b0c83910160405180910390a160005b8751811015610c2d578681815181106108e1576108e1611412565b60200260200101518060200190518101906108fc9190611428565b92508260008151811061091157610911611412565b60209081029190910101516040516370a0823160e01b81523060048201526001600160a01b03909116906370a0823190602401602060405180830381865afa158015610961573d6000803e3d6000fd5b505050506040513d601f19601f8201168201806040525081019061098591906113dc565b93508260008151811061099a5761099a611412565b60200260200101516001600160a01b03166040518060400160405280601881526020017f617070726f766528616464726573732c75696e74323536290000000000000000815250805190602001208983815181106109fa576109fa611412565b602002602001015186604051602401610a289291906001600160a01b03929092168252602082015260400190565b60408051601f198184030181529181526020820180516001600160e01b03166001600160e01b0319909416939093179092529051610a66919061145d565b6000604051808303816000865af19150503d8060008114610aa3576040519150601f19603f3d011682016040523d82523d6000602084013e610aa8565b606091505b50508092505081610aef5760405162461bcd60e51b81526020600482015260116024820152704661696c656420746f20617070726f766560781b6044820152606401610402565b878181518110610b0157610b01611412565b60200260200101516001600160a01b03166040518060800160405280604381526020016115176043913980516020909101208560008630610b4342603c61148f565b604051602401610b579594939291906114a7565b60408051601f198184030181529181526020820180516001600160e01b03166001600160e01b0319909416939093179092529051610b95919061145d565b6000604051808303816000865af19150503d8060008114610bd2576040519150601f19603f3d011682016040523d82523d6000602084013e610bd7565b606091505b50508092505081610c1b5760405162461bcd60e51b815260206004820152600e60248201526d04661696c656420746f20737761760941b6044820152606401610402565b80610c25816114e6565b9150506108c6565b506001546040516370a0823160e01b81523060048201526000916001600160a01b0316906370a0823190602401602060405180830381865afa158015610c77573d6000803e3d6000fd5b505050506040513d601f19601f82011682018060405250810190610c9b91906113dc565b9050858111610cdf5760405162461bcd60e51b815260206004820152601060248201526f556e73756363657366756c204172622160801b6044820152606401610402565b6000610ceb8288610da5565b600154909150610d05906001600160a01b03163389610658565b600154600160a01b900460ff1615610d3357600154610d2e906001600160a01b03163283610658565b610d50565b600154600054610d50916001600160a01b03908116911683610658565b600154604080518381526001600160a01b0390921660208301523282820152517ff1f6f2cd70edad69b7e9b884a3141e6c6814d3bda57d1989684f625aef2f92049181900360600190a1505050505050505050565b6000610db182846114ff565b9392505050565b634e487b7160e01b600052604160045260246000fd5b604051601f8201601f1916810167ffffffffffffffff81118282101715610df757610df7610db8565b604052919050565b600067ffffffffffffffff821115610e1957610e19610db8565b50601f01601f191660200190565b600082601f830112610e3857600080fd5b8135610e4b610e4682610dff565b610dce565b818152846020838601011115610e6057600080fd5b816020850160208301376000918101602001919091529392505050565b600060208284031215610e8f57600080fd5b813567ffffffffffffffff811115610ea657600080fd5b610eb284828501610e27565b949350505050565b600081518084526020808501945080840160005b83811015610ef35781516001600160a01b031687529582019590820190600101610ece565b509495945050505050565b60005b83811015610f19578181015183820152602001610f01565b83811115610f28576000848401525b50505050565b60008151808452610f46816020860160208601610efe565b601f01601f19169290920160200192915050565b60a081526000610f6d60a0830188610eba565b6020838203818501528188518084528284019150828160051b850101838b0160005b83811015610fbd57601f19878403018552610fab838351610f2e565b94860194925090850190600101610f8f565b50506001600160a01b03999099166040870152505050506060820193909352608001525092915050565b6001600160a01b0381168114610ffc57600080fd5b50565b60008060008060006080868803121561101757600080fd5b853561102281610fe7565b94506020860135935060408601359250606086013567ffffffffffffffff8082111561104d57600080fd5b818801915088601f83011261106157600080fd5b81358181111561107057600080fd5b89602082850101111561108257600080fd5b9699959850939650602001949392505050565b600080600080608085870312156110ab57600080fd5b843593506020850135925060408501356110c481610fe7565b9150606085013567ffffffffffffffff8111156110e057600080fd5b6110ec87828801610e27565b91505092959194509250565b60008060006060848603121561110d57600080fd5b833561111881610fe7565b9250602084013561112881610fe7565b929592945050506040919091013590565b6000806040838503121561114c57600080fd5b823561115781610fe7565b946020939093013593505050565b60006020828403121561117757600080fd5b8135610db181610fe7565b8015158114610ffc57600080fd5b6000602082840312156111a257600080fd5b8135610db181611182565b600067ffffffffffffffff8211156111c7576111c7610db8565b5060051b60200190565b600082601f8301126111e257600080fd5b815160206111f2610e46836111ad565b82815260059290921b8401810191818101908684111561121157600080fd5b8286015b8481101561123557805161122881610fe7565b8352918301918301611215565b509695505050505050565b805161124b81610fe7565b919050565b600080600080600060a0868803121561126857600080fd5b855167ffffffffffffffff8082111561128057600080fd5b61128c89838a016111d1565b965060208801519150808211156112a257600080fd5b818801915088601f8301126112b657600080fd5b81516112c4610e46826111ad565b8082825260208201915060208360051b86010192508b8311156112e657600080fd5b602085015b8381101561135a5780518581111561130257600080fd5b8601603f81018e1361131357600080fd5b6020810151611324610e4682610dff565b8181528f604083850101111561133957600080fd5b61134a826020830160408601610efe565b85525050602092830192016112eb565b50809850505050505061136f60408701611240565b6060870151608090970151959894975095949392505050565b60006020828403121561139a57600080fd5b8151610db181610fe7565b84815283602082015260018060a01b03831660408201526080606082015260006113d26080830184610f2e565b9695505050505050565b6000602082840312156113ee57600080fd5b5051919050565b60006020828403121561140757600080fd5b8151610db181611182565b634e487b7160e01b600052603260045260246000fd5b60006020828403121561143a57600080fd5b815167ffffffffffffffff81111561145157600080fd5b610eb2848285016111d1565b6000825161146f818460208701610efe565b9190910192915050565b634e487b7160e01b600052601160045260246000fd5b600082198211156114a2576114a2611479565b500190565b85815260ff8516602082015260a0604082015260006114c960a0830186610eba565b6001600160a01b0394909416606083015250608001529392505050565b6000600182016114f8576114f8611479565b5060010190565b60008282101561151157611511611479565b50039056fe737761704578616374546f6b656e73466f72546f6b656e732875696e743235362c75696e743235362c616464726573735b5d2c616464726573732c75696e7432353629a26469706673582212209901acba83529ed4e8cc07385abf4de15b95c6d36d00f99f1fa3977bedaaca2564736f6c634300080e0033",
  "bytecodeSha1": "1ab47cdda64e9d24b12b0871fede6fff281ca725",
  "compiler": {
    "evm_version": "istanbul",
    "optimizer": {
      "enabled": true,
      "runs": 200
    },
    "version": "0.8.14+commit.80d49f37"
  },
  "contractName": "BscArb",
  "language": "Solidity",
  "natspec": {
    "kind": "dev",
    "methods": {},
    "version": 1
  },
  "opcodes": "PUSH1 0x80 PUSH1 0x40 MSTORE PUSH1 0x4 CALLDATASIZE LT PUSH2 0x117 JUMPI PUSH1 0x0 CALLDATALOAD PUSH1 0xE0 SHR DUP1 PUSH4 0x84800812 GT PUSH2 0xA0 JUMPI DUP1 PUSH4 0xAF02F2B5 GT PUSH2 0x64 JUMPI DUP1 PUSH4 0xAF02F2B5 EQ PUSH2 0x237 JUMPI DUP1 PUSH4 0xB2FF9F26 EQ PUSH2 0x15D JUMPI DUP1 PUSH4 0xBC25CF77 EQ PUSH2 0x257 JUMPI DUP1 PUSH4 0xBECDA363 EQ PUSH2 0x15D JUMPI DUP1 PUSH4 0xFDB610CD EQ PUSH2 0x15D JUMPI PUSH1 0x0 DUP1 REVERT JUMPDEST DUP1 PUSH4 0x84800812 EQ PUSH2 0x15D JUMPI DUP1 PUSH4 0x88F9EDDD EQ PUSH2 0x15D JUMPI DUP1 PUSH4 0x8DA5CB5B EQ PUSH2 0x1BF JUMPI DUP1 PUSH4 0x90B98A11 EQ PUSH2 0x1F7 JUMPI DUP1 PUSH4 0xA6F9DAE1 EQ PUSH2 0x217 JUMPI PUSH1 0x0 DUP1 REVERT JUMPDEST DUP1 PUSH4 0x22109682 GT PUSH2 0xE7 JUMPI DUP1 PUSH4 0x22109682 EQ PUSH2 0x15D JUMPI DUP1 PUSH4 0x2FDCFBD2 EQ PUSH2 0x19F JUMPI DUP1 PUSH4 0x3CC9C6B4 EQ PUSH2 0x15D JUMPI DUP1 PUSH4 0x3FC01685 EQ PUSH2 0x15D JUMPI DUP1 PUSH4 0x5B3BC4FE EQ PUSH2 0x15D JUMPI PUSH1 0x0 DUP1 REVERT JUMPDEST DUP1 PUSH3 0x17EA80 EQ PUSH2 0x123 JUMPI DUP1 PUSH4 0x10D1E85C EQ PUSH2 0x15D JUMPI DUP1 PUSH4 0x10F2AA41 EQ PUSH2 0x17F JUMPI DUP1 PUSH4 0x110C03DE EQ PUSH2 0x15D JUMPI PUSH1 0x0 DUP1 REVERT JUMPDEST CALLDATASIZE PUSH2 0x11E JUMPI STOP JUMPDEST PUSH1 0x0 DUP1 REVERT JUMPDEST CALLVALUE DUP1 ISZERO PUSH2 0x12F JUMPI PUSH1 0x0 DUP1 REVERT JUMPDEST POP PUSH2 0x143 PUSH2 0x13E CALLDATASIZE PUSH1 0x4 PUSH2 0xE7D JUMP JUMPDEST PUSH2 0x277 JUMP JUMPDEST PUSH1 0x40 MLOAD PUSH2 0x154 SWAP6 SWAP5 SWAP4 SWAP3 SWAP2 SWAP1 PUSH2 0xF5A JUMP JUMPDEST PUSH1 0x40 MLOAD DUP1 SWAP2 SUB SWAP1 RETURN JUMPDEST CALLVALUE DUP1 ISZERO PUSH2 0x169 JUMPI PUSH1 0x0 DUP1 REVERT JUMPDEST POP PUSH2 0x17D PUSH2 0x178 CALLDATASIZE PUSH1 0x4 PUSH2 0xFFF JUMP JUMPDEST PUSH2 0x2A5 JUMP JUMPDEST STOP JUMPDEST CALLVALUE DUP1 ISZERO PUSH2 0x18B JUMPI PUSH1 0x0 DUP1 REVERT JUMPDEST POP PUSH2 0x17D PUSH2 0x19A CALLDATASIZE PUSH1 0x4 PUSH2 0x1095 JUMP JUMPDEST PUSH2 0x2B6 JUMP JUMPDEST CALLVALUE DUP1 ISZERO PUSH2 0x1AB JUMPI PUSH1 0x0 DUP1 REVERT JUMPDEST POP PUSH2 0x17D PUSH2 0x1BA CALLDATASIZE PUSH1 0x4 PUSH2 0x10F8 JUMP JUMPDEST PUSH2 0x48F JUMP JUMPDEST CALLVALUE DUP1 ISZERO PUSH2 0x1CB JUMPI PUSH1 0x0 DUP1 REVERT JUMPDEST POP PUSH1 0x0 SLOAD PUSH2 0x1DF SWAP1 PUSH1 0x1 PUSH1 0x1 PUSH1 0xA0 SHL SUB AND DUP2 JUMP JUMPDEST PUSH1 0x40 MLOAD PUSH1 0x1 PUSH1 0x1 PUSH1 0xA0 SHL SUB SWAP1 SWAP2 AND DUP2 MSTORE PUSH1 0x20 ADD PUSH2 0x154 JUMP JUMPDEST CALLVALUE DUP1 ISZERO PUSH2 0x203 JUMPI PUSH1 0x0 DUP1 REVERT JUMPDEST POP PUSH2 0x17D PUSH2 0x212 CALLDATASIZE PUSH1 0x4 PUSH2 0x1139 JUMP JUMPDEST PUSH2 0x4B6 JUMP JUMPDEST CALLVALUE DUP1 ISZERO PUSH2 0x223 JUMPI PUSH1 0x0 DUP1 REVERT JUMPDEST POP PUSH2 0x17D PUSH2 0x232 CALLDATASIZE PUSH1 0x4 PUSH2 0x1165 JUMP JUMPDEST PUSH2 0x4DB JUMP JUMPDEST CALLVALUE DUP1 ISZERO PUSH2 0x243 JUMPI PUSH1 0x0 DUP1 REVERT JUMPDEST POP PUSH2 0x17D PUSH2 0x252 CALLDATASIZE PUSH1 0x4 PUSH2 0x1190 JUMP JUMPDEST PUSH2 0x514 JUMP JUMPDEST CALLVALUE DUP1 ISZERO PUSH2 0x263 JUMPI PUSH1 0x0 DUP1 REVERT JUMPDEST POP PUSH2 0x17D PUSH2 0x272 CALLDATASIZE PUSH1 0x4 PUSH2 0x1165 JUMP JUMPDEST PUSH2 0x549 JUMP JUMPDEST PUSH1 0x60 DUP1 PUSH1 0x0 DUP1 PUSH1 0x0 DUP6 DUP1 PUSH1 0x20 ADD SWAP1 MLOAD DUP2 ADD SWAP1 PUSH2 0x293 SWAP2 SWAP1 PUSH2 0x1250 JUMP JUMPDEST SWAP4 SWAP11 SWAP3 SWAP10 POP SWAP1 SWAP8 POP SWAP6 POP SWAP1 SWAP4 POP SWAP2 POP POP JUMP JUMPDEST PUSH2 0x2AF DUP3 DUP3 PUSH2 0x59E JUMP JUMPDEST POP POP POP POP POP JUMP JUMPDEST PUSH1 0x0 PUSH2 0x2C1 DUP3 PUSH2 0x277 JUMP JUMPDEST POP POP SWAP3 POP POP POP DUP1 PUSH1 0x1 PUSH1 0x1 PUSH1 0xA0 SHL SUB AND PUSH4 0xDFE1681 PUSH1 0x40 MLOAD DUP2 PUSH4 0xFFFFFFFF AND PUSH1 0xE0 SHL DUP2 MSTORE PUSH1 0x4 ADD PUSH1 0x20 PUSH1 0x40 MLOAD DUP1 DUP4 SUB DUP2 DUP7 GAS STATICCALL ISZERO DUP1 ISZERO PUSH2 0x305 JUMPI RETURNDATASIZE PUSH1 0x0 DUP1 RETURNDATACOPY RETURNDATASIZE PUSH1 0x0 REVERT JUMPDEST POP POP POP POP PUSH1 0x40 MLOAD RETURNDATASIZE PUSH1 0x1F NOT PUSH1 0x1F DUP3 ADD AND DUP3 ADD DUP1 PUSH1 0x40 MSTORE POP DUP2 ADD SWAP1 PUSH2 0x329 SWAP2 SWAP1 PUSH2 0x1388 JUMP JUMPDEST PUSH1 0x1 PUSH1 0x1 PUSH1 0xA0 SHL SUB AND DUP4 PUSH1 0x1 PUSH1 0x1 PUSH1 0xA0 SHL SUB AND EQ DUP1 PUSH2 0x3BA JUMPI POP DUP1 PUSH1 0x1 PUSH1 0x1 PUSH1 0xA0 SHL SUB AND PUSH4 0xD21220A7 PUSH1 0x40 MLOAD DUP2 PUSH4 0xFFFFFFFF AND PUSH1 0xE0 SHL DUP2 MSTORE PUSH1 0x4 ADD PUSH1 0x20 PUSH1 0x40 MLOAD DUP1 DUP4 SUB DUP2 DUP7 GAS STATICCALL ISZERO DUP1 ISZERO PUSH2 0x381 JUMPI RETURNDATASIZE PUSH1 0x0 DUP1 RETURNDATACOPY RETURNDATASIZE PUSH1 0x0 REVERT JUMPDEST POP POP POP POP PUSH1 0x40 MLOAD RETURNDATASIZE PUSH1 0x1F NOT PUSH1 0x1F DUP3 ADD AND DUP3 ADD DUP1 PUSH1 0x40 MSTORE POP DUP2 ADD SWAP1 PUSH2 0x3A5 SWAP2 SWAP1 PUSH2 0x1388 JUMP JUMPDEST PUSH1 0x1 PUSH1 0x1 PUSH1 0xA0 SHL SUB AND DUP4 PUSH1 0x1 PUSH1 0x1 PUSH1 0xA0 SHL SUB AND EQ JUMPDEST PUSH2 0x40B JUMPI PUSH1 0x40 MLOAD PUSH3 0x461BCD PUSH1 0xE5 SHL DUP2 MSTORE PUSH1 0x20 PUSH1 0x4 DUP3 ADD MSTORE PUSH1 0x18 PUSH1 0x24 DUP3 ADD MSTORE PUSH32 0x496E636F7272656374205061697220666F7220746F6B656E0000000000000000 PUSH1 0x44 DUP3 ADD MSTORE PUSH1 0x64 ADD JUMPDEST PUSH1 0x40 MLOAD DUP1 SWAP2 SUB SWAP1 REVERT JUMPDEST PUSH1 0x1 DUP1 SLOAD PUSH1 0x1 PUSH1 0x1 PUSH1 0xA0 SHL SUB NOT AND PUSH1 0x1 PUSH1 0x1 PUSH1 0xA0 SHL SUB DUP6 DUP2 AND SWAP2 SWAP1 SWAP2 OR SWAP1 SWAP2 SSTORE PUSH1 0x40 MLOAD PUSH4 0x22C0D9F PUSH1 0xE0 SHL DUP2 MSTORE SWAP1 DUP3 AND SWAP1 PUSH4 0x22C0D9F SWAP1 PUSH2 0x456 SWAP1 DUP9 SWAP1 DUP9 SWAP1 ADDRESS SWAP1 DUP9 SWAP1 PUSH1 0x4 ADD PUSH2 0x13A5 JUMP JUMPDEST PUSH1 0x0 PUSH1 0x40 MLOAD DUP1 DUP4 SUB DUP2 PUSH1 0x0 DUP8 DUP1 EXTCODESIZE ISZERO DUP1 ISZERO PUSH2 0x470 JUMPI PUSH1 0x0 DUP1 REVERT JUMPDEST POP GAS CALL ISZERO DUP1 ISZERO PUSH2 0x484 JUMPI RETURNDATASIZE PUSH1 0x0 DUP1 RETURNDATACOPY RETURNDATASIZE PUSH1 0x0 REVERT JUMPDEST POP POP POP POP POP POP POP POP POP JUMP JUMPDEST PUSH1 0x0 SLOAD PUSH1 0x1 PUSH1 0x1 PUSH1 0xA0 SHL SUB AND CALLER EQ PUSH2 0x4A6 JUMPI PUSH1 0x0 DUP1 REVERT JUMPDEST PUSH2 0x4B1 DUP4 DUP4 DUP4 PUSH2 0x658 JUMP JUMPDEST POP POP POP JUMP JUMPDEST PUSH1 0x0 SLOAD PUSH1 0x1 PUSH1 0x1 PUSH1 0xA0 SHL SUB AND CALLER EQ PUSH2 0x4CD JUMPI PUSH1 0x0 DUP1 REVERT JUMPDEST PUSH2 0x4D7 DUP3 DUP3 PUSH2 0x7C1 JUMP JUMPDEST POP POP JUMP JUMPDEST PUSH1 0x0 SLOAD PUSH1 0x1 PUSH1 0x1 PUSH1 0xA0 SHL SUB AND CALLER EQ PUSH2 0x4F2 JUMPI PUSH1 0x0 DUP1 REVERT JUMPDEST PUSH1 0x0 DUP1 SLOAD PUSH1 0x1 PUSH1 0x1 PUSH1 0xA0 SHL SUB NOT AND PUSH1 0x1 PUSH1 0x1 PUSH1 0xA0 SHL SUB SWAP3 SWAP1 SWAP3 AND SWAP2 SWAP1 SWAP2 OR SWAP1 SSTORE JUMP JUMPDEST PUSH1 0x0 SLOAD PUSH1 0x1 PUSH1 0x1 PUSH1 0xA0 SHL SUB AND CALLER EQ PUSH2 0x52B JUMPI PUSH1 0x0 DUP1 REVERT JUMPDEST PUSH1 0x1 DUP1 SLOAD SWAP2 ISZERO ISZERO PUSH1 0x1 PUSH1 0xA0 SHL MUL PUSH1 0xFF PUSH1 0xA0 SHL NOT SWAP1 SWAP3 AND SWAP2 SWAP1 SWAP2 OR SWAP1 SSTORE JUMP JUMPDEST PUSH1 0x40 MLOAD PUSH4 0xBC25CF77 PUSH1 0xE0 SHL DUP2 MSTORE CALLER PUSH1 0x4 DUP3 ADD MSTORE PUSH1 0x1 PUSH1 0x1 PUSH1 0xA0 SHL SUB DUP3 AND SWAP1 PUSH4 0xBC25CF77 SWAP1 PUSH1 0x24 ADD PUSH1 0x0 PUSH1 0x40 MLOAD DUP1 DUP4 SUB DUP2 PUSH1 0x0 DUP8 DUP1 EXTCODESIZE ISZERO DUP1 ISZERO PUSH2 0x58A JUMPI PUSH1 0x0 DUP1 REVERT JUMPDEST POP GAS CALL ISZERO DUP1 ISZERO PUSH2 0x2AF JUMPI RETURNDATASIZE PUSH1 0x0 DUP1 RETURNDATACOPY RETURNDATASIZE PUSH1 0x0 REVERT JUMPDEST PUSH1 0x0 DUP1 PUSH1 0x0 DUP1 PUSH1 0x0 PUSH2 0x5E5 DUP8 DUP8 DUP1 DUP1 PUSH1 0x1F ADD PUSH1 0x20 DUP1 SWAP2 DIV MUL PUSH1 0x20 ADD PUSH1 0x40 MLOAD SWAP1 DUP2 ADD PUSH1 0x40 MSTORE DUP1 SWAP4 SWAP3 SWAP2 SWAP1 DUP2 DUP2 MSTORE PUSH1 0x20 ADD DUP4 DUP4 DUP1 DUP3 DUP5 CALLDATACOPY PUSH1 0x0 SWAP3 ADD SWAP2 SWAP1 SWAP2 MSTORE POP PUSH2 0x277 SWAP3 POP POP POP JUMP JUMPDEST SWAP5 POP SWAP5 POP SWAP5 POP SWAP5 POP SWAP5 POP DUP3 PUSH1 0x1 PUSH1 0x1 PUSH1 0xA0 SHL SUB AND CALLER PUSH1 0x1 PUSH1 0x1 PUSH1 0xA0 SHL SUB AND EQ PUSH2 0x643 JUMPI PUSH1 0x40 MLOAD PUSH3 0x461BCD PUSH1 0xE5 SHL DUP2 MSTORE PUSH1 0x20 PUSH1 0x4 DUP3 ADD MSTORE PUSH1 0x10 PUSH1 0x24 DUP3 ADD MSTORE PUSH16 0x2337B93134B23232B71021B0B63632B9 PUSH1 0x81 SHL PUSH1 0x44 DUP3 ADD MSTORE PUSH1 0x64 ADD PUSH2 0x402 JUMP JUMPDEST PUSH2 0x64F DUP6 DUP6 DUP5 DUP5 PUSH2 0x83E JUMP JUMPDEST POP POP POP POP POP POP POP JUMP JUMPDEST PUSH1 0x40 MLOAD PUSH4 0x70A08231 PUSH1 0xE0 SHL DUP2 MSTORE ADDRESS PUSH1 0x4 DUP3 ADD MSTORE DUP2 SWAP1 PUSH1 0x1 PUSH1 0x1 PUSH1 0xA0 SHL SUB DUP6 AND SWAP1 PUSH4 0x70A08231 SWAP1 PUSH1 0x24 ADD PUSH1 0x20 PUSH1 0x40 MLOAD DUP1 DUP4 SUB DUP2 DUP7 GAS STATICCALL ISZERO DUP1 ISZERO PUSH2 0x69E JUMPI RETURNDATASIZE PUSH1 0x0 DUP1 RETURNDATACOPY RETURNDATASIZE PUSH1 0x0 REVERT JUMPDEST POP POP POP POP PUSH1 0x40 MLOAD RETURNDATASIZE PUSH1 0x1F NOT PUSH1 0x1F DUP3 ADD AND DUP3 ADD DUP1 PUSH1 0x40 MSTORE POP DUP2 ADD SWAP1 PUSH2 0x6C2 SWAP2 SWAP1 PUSH2 0x13DC JUMP JUMPDEST LT ISZERO PUSH2 0x705 JUMPI PUSH1 0x40 MLOAD PUSH3 0x461BCD PUSH1 0xE5 SHL DUP2 MSTORE PUSH1 0x20 PUSH1 0x4 DUP3 ADD MSTORE PUSH1 0x12 PUSH1 0x24 DUP3 ADD MSTORE PUSH18 0x496E73756666696369656E742046756E6473 PUSH1 0x70 SHL PUSH1 0x44 DUP3 ADD MSTORE PUSH1 0x64 ADD PUSH2 0x402 JUMP JUMPDEST PUSH1 0x40 MLOAD PUSH4 0xA9059CBB PUSH1 0xE0 SHL DUP2 MSTORE PUSH1 0x1 PUSH1 0x1 PUSH1 0xA0 SHL SUB DUP4 DUP2 AND PUSH1 0x4 DUP4 ADD MSTORE PUSH1 0x24 DUP3 ADD DUP4 SWAP1 MSTORE DUP5 AND SWAP1 PUSH4 0xA9059CBB SWAP1 PUSH1 0x44 ADD PUSH1 0x20 PUSH1 0x40 MLOAD DUP1 DUP4 SUB DUP2 PUSH1 0x0 DUP8 GAS CALL ISZERO DUP1 ISZERO PUSH2 0x754 JUMPI RETURNDATASIZE PUSH1 0x0 DUP1 RETURNDATACOPY RETURNDATASIZE PUSH1 0x0 REVERT JUMPDEST POP POP POP POP PUSH1 0x40 MLOAD RETURNDATASIZE PUSH1 0x1F NOT PUSH1 0x1F DUP3 ADD AND DUP3 ADD DUP1 PUSH1 0x40 MSTORE POP DUP2 ADD SWAP1 PUSH2 0x778 SWAP2 SWAP1 PUSH2 0x13F5 JUMP JUMPDEST POP PUSH1 0x40 DUP1 MLOAD PUSH1 0x1 PUSH1 0x1 PUSH1 0xA0 SHL SUB DUP1 DUP7 AND DUP3 MSTORE DUP5 AND PUSH1 0x20 DUP3 ADD MSTORE PUSH32 0x81FF37C0A846F0FA29FD65BC885AC344052231414004D0E16A59678C4018B3A3 SWAP2 ADD PUSH1 0x40 MLOAD DUP1 SWAP2 SUB SWAP1 LOG1 POP POP POP JUMP JUMPDEST PUSH1 0x40 MLOAD PUSH1 0x1 PUSH1 0x1 PUSH1 0xA0 SHL SUB DUP4 AND SWAP1 DUP3 ISZERO PUSH2 0x8FC MUL SWAP1 DUP4 SWAP1 PUSH1 0x0 DUP2 DUP2 DUP2 DUP6 DUP9 DUP9 CALL SWAP4 POP POP POP POP ISZERO DUP1 ISZERO PUSH2 0x7F7 JUMPI RETURNDATASIZE PUSH1 0x0 DUP1 RETURNDATACOPY RETURNDATASIZE PUSH1 0x0 REVERT JUMPDEST POP PUSH1 0x40 DUP1 MLOAD PUSH1 0x0 DUP2 MSTORE PUSH1 0x1 PUSH1 0x1 PUSH1 0xA0 SHL SUB DUP5 AND PUSH1 0x20 DUP3 ADD MSTORE PUSH32 0x81FF37C0A846F0FA29FD65BC885AC344052231414004D0E16A59678C4018B3A3 SWAP2 ADD PUSH1 0x40 MLOAD DUP1 SWAP2 SUB SWAP1 LOG1 POP POP JUMP JUMPDEST PUSH1 0x0 PUSH1 0x60 PUSH1 0x0 DUP6 MLOAD DUP8 MLOAD EQ PUSH2 0x88B JUMPI PUSH1 0x40 MLOAD PUSH3 0x461BCD PUSH1 0xE5 SHL DUP2 MSTORE PUSH1 0x20 PUSH1 0x4 DUP3 ADD MSTORE PUSH1 0x13 PUSH1 0x24 DUP3 ADD MSTORE PUSH19 0x696E636F6E677275656E742061727261797321 PUSH1 0x68 SHL PUSH1 0x44 DUP3 ADD MSTORE PUSH1 0x64 ADD PUSH2 0x402 JUMP JUMPDEST PUSH1 0x40 DUP1 MLOAD DUP7 DUP2 MSTORE CALLER PUSH1 0x20 DUP3 ADD MSTORE PUSH32 0xE6721A7A09BF2789E54804E7E36BCEB8BF71E370EAFC03B486C7F706A50B0C83 SWAP2 ADD PUSH1 0x40 MLOAD DUP1 SWAP2 SUB SWAP1 LOG1 PUSH1 0x0 JUMPDEST DUP8 MLOAD DUP2 LT ISZERO PUSH2 0xC2D JUMPI DUP7 DUP2 DUP2 MLOAD DUP2 LT PUSH2 0x8E1 JUMPI PUSH2 0x8E1 PUSH2 0x1412 JUMP JUMPDEST PUSH1 0x20 MUL PUSH1 0x20 ADD ADD MLOAD DUP1 PUSH1 0x20 ADD SWAP1 MLOAD DUP2 ADD SWAP1 PUSH2 0x8FC SWAP2 SWAP1 PUSH2 0x1428 JUMP JUMPDEST SWAP3 POP DUP3 PUSH1 0x0 DUP2 MLOAD DUP2 LT PUSH2 0x911 JUMPI PUSH2 0x911 PUSH2 0x1412 JUMP JUMPDEST PUSH1 0x20 SWAP1 DUP2 MUL SWAP2 SWAP1 SWAP2 ADD ADD MLOAD PUSH1 0x40 MLOAD PUSH4 0x70A08231 PUSH1 0xE0 SHL DUP2 MSTORE ADDRESS PUSH1 0x4 DUP3 ADD MSTORE PUSH1 0x1 PUSH1 0x1 PUSH1 0xA0 SHL SUB SWAP1 SWAP2 AND SWAP1 PUSH4 0x70A08231 SWAP1 PUSH1 0x24 ADD PUSH1 0x20 PUSH1 0x40 MLOAD DUP1 DUP4 SUB DUP2 DUP7 GAS STATICCALL ISZERO DUP1 ISZERO PUSH2 0x961 JUMPI RETURNDATASIZE PUSH1 0x0 DUP1 RETURNDATACOPY RETURNDATASIZE PUSH1 0x0 REVERT JUMPDEST POP POP POP POP PUSH1 0x40 MLOAD RETURNDATASIZE PUSH1 0x1F NOT PUSH1 0x1F DUP3 ADD AND DUP3 ADD DUP1 PUSH1 0x40 MSTORE POP DUP2 ADD SWAP1 PUSH2 0x985 SWAP2 SWAP1 PUSH2 0x13DC JUMP JUMPDEST SWAP4 POP DUP3 PUSH1 0x0 DUP2 MLOAD DUP2 LT PUSH2 0x99A JUMPI PUSH2 0x99A PUSH2 0x1412 JUMP JUMPDEST PUSH1 0x20 MUL PUSH1 0x20 ADD ADD MLOAD PUSH1 0x1 PUSH1 0x1 PUSH1 0xA0 SHL SUB AND PUSH1 0x40 MLOAD DUP1 PUSH1 0x40 ADD PUSH1 0x40 MSTORE DUP1 PUSH1 0x18 DUP2 MSTORE PUSH1 0x20 ADD PUSH32 0x617070726F766528616464726573732C75696E74323536290000000000000000 DUP2 MSTORE POP DUP1 MLOAD SWAP1 PUSH1 0x20 ADD KECCAK256 DUP10 DUP4 DUP2 MLOAD DUP2 LT PUSH2 0x9FA JUMPI PUSH2 0x9FA PUSH2 0x1412 JUMP JUMPDEST PUSH1 0x20 MUL PUSH1 0x20 ADD ADD MLOAD DUP7 PUSH1 0x40 MLOAD PUSH1 0x24 ADD PUSH2 0xA28 SWAP3 SWAP2 SWAP1 PUSH1 0x1 PUSH1 0x1 PUSH1 0xA0 SHL SUB SWAP3 SWAP1 SWAP3 AND DUP3 MSTORE PUSH1 0x20 DUP3 ADD MSTORE PUSH1 0x40 ADD SWAP1 JUMP JUMPDEST PUSH1 0x40 DUP1 MLOAD PUSH1 0x1F NOT DUP2 DUP5 SUB ADD DUP2 MSTORE SWAP2 DUP2 MSTORE PUSH1 0x20 DUP3 ADD DUP1 MLOAD PUSH1 0x1 PUSH1 0x1 PUSH1 0xE0 SHL SUB AND PUSH1 0x1 PUSH1 0x1 PUSH1 0xE0 SHL SUB NOT SWAP1 SWAP5 AND SWAP4 SWAP1 SWAP4 OR SWAP1 SWAP3 MSTORE SWAP1 MLOAD PUSH2 0xA66 SWAP2 SWAP1 PUSH2 0x145D JUMP JUMPDEST PUSH1 0x0 PUSH1 0x40 MLOAD DUP1 DUP4 SUB DUP2 PUSH1 0x0 DUP7 GAS CALL SWAP2 POP POP RETURNDATASIZE DUP1 PUSH1 0x0 DUP2 EQ PUSH2 0xAA3 JUMPI PUSH1 0x40 MLOAD SWAP2 POP PUSH1 0x1F NOT PUSH1 0x3F RETURNDATASIZE ADD AND DUP3 ADD PUSH1 0x40 MSTORE RETURNDATASIZE DUP3 MSTORE RETURNDATASIZE PUSH1 0x0 PUSH1 0x20 DUP5 ADD RETURNDATACOPY PUSH2 0xAA8 JUMP JUMPDEST PUSH1 0x60 SWAP2 POP JUMPDEST POP POP DUP1 SWAP3 POP POP DUP2 PUSH2 0xAEF JUMPI PUSH1 0x40 MLOAD PUSH3 0x461BCD PUSH1 0xE5 SHL DUP2 MSTORE PUSH1 0x20 PUSH1 0x4 DUP3 ADD MSTORE PUSH1 0x11 PUSH1 0x24 DUP3 ADD MSTORE PUSH17 0x4661696C656420746F20617070726F7665 PUSH1 0x78 SHL PUSH1 0x44 DUP3 ADD MSTORE PUSH1 0x64 ADD PUSH2 0x402 JUMP JUMPDEST DUP8 DUP2 DUP2 MLOAD DUP2 LT PUSH2 0xB01 JUMPI PUSH2 0xB01 PUSH2 0x1412 JUMP JUMPDEST PUSH1 0x20 MUL PUSH1 0x20 ADD ADD MLOAD PUSH1 0x1 PUSH1 0x1 PUSH1 0xA0 SHL SUB AND PUSH1 0x40 MLOAD DUP1 PUSH1 0x80 ADD PUSH1 0x40 MSTORE DUP1 PUSH1 0x43 DUP2 MSTORE PUSH1 0x20 ADD PUSH2 0x1517 PUSH1 0x43 SWAP2 CODECOPY DUP1 MLOAD PUSH1 0x20 SWAP1 SWAP2 ADD KECCAK256 DUP6 PUSH1 0x0 DUP7 ADDRESS PUSH2 0xB43 TIMESTAMP PUSH1 0x3C PUSH2 0x148F JUMP JUMPDEST PUSH1 0x40 MLOAD PUSH1 0x24 ADD PUSH2 0xB57 SWAP6 SWAP5 SWAP4 SWAP3 SWAP2 SWAP1 PUSH2 0x14A7 JUMP JUMPDEST PUSH1 0x40 DUP1 MLOAD PUSH1 0x1F NOT DUP2 DUP5 SUB ADD DUP2 MSTORE SWAP2 DUP2 MSTORE PUSH1 0x20 DUP3 ADD DUP1 MLOAD PUSH1 0x1 PUSH1 0x1 PUSH1 0xE0 SHL SUB AND PUSH1 0x1 PUSH1 0x1 PUSH1 0xE0 SHL SUB NOT SWAP1 SWAP5 AND SWAP4 SWAP1 SWAP4 OR SWAP1 SWAP3 MSTORE SWAP1 MLOAD PUSH2 0xB95 SWAP2 SWAP1 PUSH2 0x145D JUMP JUMPDEST PUSH1 0x0 PUSH1 0x40 MLOAD DUP1 DUP4 SUB DUP2 PUSH1 0x0 DUP7 GAS CALL SWAP2 POP POP RETURNDATASIZE DUP1 PUSH1 0x0 DUP2 EQ PUSH2 0xBD2 JUMPI PUSH1 0x40 MLOAD SWAP2 POP PUSH1 0x1F NOT PUSH1 0x3F RETURNDATASIZE ADD AND DUP3 ADD PUSH1 0x40 MSTORE RETURNDATASIZE DUP3 MSTORE RETURNDATASIZE PUSH1 0x0 PUSH1 0x20 DUP5 ADD RETURNDATACOPY PUSH2 0xBD7 JUMP JUMPDEST PUSH1 0x60 SWAP2 POP JUMPDEST POP POP DUP1 SWAP3 POP POP DUP2 PUSH2 0xC1B JUMPI PUSH1 0x40 MLOAD PUSH3 0x461BCD PUSH1 0xE5 SHL DUP2 MSTORE PUSH1 0x20 PUSH1 0x4 DUP3 ADD MSTORE PUSH1 0xE PUSH1 0x24 DUP3 ADD MSTORE PUSH14 0x4661696C656420746F207377617 PUSH1 0x94 SHL PUSH1 0x44 DUP3 ADD MSTORE PUSH1 0x64 ADD PUSH2 0x402 JUMP JUMPDEST DUP1 PUSH2 0xC25 DUP2 PUSH2 0x14E6 JUMP JUMPDEST SWAP2 POP POP PUSH2 0x8C6 JUMP JUMPDEST POP PUSH1 0x1 SLOAD PUSH1 0x40 MLOAD PUSH4 0x70A08231 PUSH1 0xE0 SHL DUP2 MSTORE ADDRESS PUSH1 0x4 DUP3 ADD MSTORE PUSH1 0x0 SWAP2 PUSH1 0x1 PUSH1 0x1 PUSH1 0xA0 SHL SUB AND SWAP1 PUSH4 0x70A08231 SWAP1 PUSH1 0x24 ADD PUSH1 0x20 PUSH1 0x40 MLOAD DUP1 DUP4 SUB DUP2 DUP7 GAS STATICCALL ISZERO DUP1 ISZERO PUSH2 0xC77 JUMPI RETURNDATASIZE PUSH1 0x0 DUP1 RETURNDATACOPY RETURNDATASIZE PUSH1 0x0 REVERT JUMPDEST POP POP POP POP PUSH1 0x40 MLOAD RETURNDATASIZE PUSH1 0x1F NOT PUSH1 0x1F DUP3 ADD AND DUP3 ADD DUP1 PUSH1 0x40 MSTORE POP DUP2 ADD SWAP1 PUSH2 0xC9B SWAP2 SWAP1 PUSH2 0x13DC JUMP JUMPDEST SWAP1 POP DUP6 DUP2 GT PUSH2 0xCDF JUMPI PUSH1 0x40 MLOAD PUSH3 0x461BCD PUSH1 0xE5 SHL DUP2 MSTORE PUSH1 0x20 PUSH1 0x4 DUP3 ADD MSTORE PUSH1 0x10 PUSH1 0x24 DUP3 ADD MSTORE PUSH16 0x556E73756363657366756C2041726221 PUSH1 0x80 SHL PUSH1 0x44 DUP3 ADD MSTORE PUSH1 0x64 ADD PUSH2 0x402 JUMP JUMPDEST PUSH1 0x0 PUSH2 0xCEB DUP3 DUP9 PUSH2 0xDA5 JUMP JUMPDEST PUSH1 0x1 SLOAD SWAP1 SWAP2 POP PUSH2 0xD05 SWAP1 PUSH1 0x1 PUSH1 0x1 PUSH1 0xA0 SHL SUB AND CALLER DUP10 PUSH2 0x658 JUMP JUMPDEST PUSH1 0x1 SLOAD PUSH1 0x1 PUSH1 0xA0 SHL SWAP1 DIV PUSH1 0xFF AND ISZERO PUSH2 0xD33 JUMPI PUSH1 0x1 SLOAD PUSH2 0xD2E SWAP1 PUSH1 0x1 PUSH1 0x1 PUSH1 0xA0 SHL SUB AND ORIGIN DUP4 PUSH2 0x658 JUMP JUMPDEST PUSH2 0xD50 JUMP JUMPDEST PUSH1 0x1 SLOAD PUSH1 0x0 SLOAD PUSH2 0xD50 SWAP2 PUSH1 0x1 PUSH1 0x1 PUSH1 0xA0 SHL SUB SWAP1 DUP2 AND SWAP2 AND DUP4 PUSH2 0x658 JUMP JUMPDEST PUSH1 0x1 SLOAD PUSH1 0x40 DUP1 MLOAD DUP4 DUP2 MSTORE PUSH1 0x1 PUSH1 0x1 PUSH1 0xA0 SHL SUB SWAP1 SWAP3 AND PUSH1 0x20 DUP4 ADD MSTORE ORIGIN DUP3 DUP3 ADD MSTORE MLOAD PUSH32 0xF1F6F2CD70EDAD69B7E9B884A3141E6C6814D3BDA57D1989684F625AEF2F9204 SWAP2 DUP2 SWAP1 SUB PUSH1 0x60 ADD SWAP1 LOG1 POP POP POP POP POP POP POP POP POP JUMP JUMPDEST PUSH1 0x0 PUSH2 0xDB1 DUP3 DUP5 PUSH2 0x14FF JUMP JUMPDEST SWAP4 SWAP3 POP POP POP JUMP JUMPDEST PUSH4 0x4E487B71 PUSH1 0xE0 SHL PUSH1 0x0 MSTORE PUSH1 0x41 PUSH1 0x4 MSTORE PUSH1 0x24 PUSH1 0x0 REVERT JUMPDEST PUSH1 0x40 MLOAD PUSH1 0x1F DUP3 ADD PUSH1 0x1F NOT AND DUP2 ADD PUSH8 0xFFFFFFFFFFFFFFFF DUP2 GT DUP3 DUP3 LT OR ISZERO PUSH2 0xDF7 JUMPI PUSH2 0xDF7 PUSH2 0xDB8 JUMP JUMPDEST PUSH1 0x40 MSTORE SWAP2 SWAP1 POP JUMP JUMPDEST PUSH1 0x0 PUSH8 0xFFFFFFFFFFFFFFFF DUP3 GT ISZERO PUSH2 0xE19 JUMPI PUSH2 0xE19 PUSH2 0xDB8 JUMP JUMPDEST POP PUSH1 0x1F ADD PUSH1 0x1F NOT AND PUSH1 0x20 ADD SWAP1 JUMP JUMPDEST PUSH1 0x0 DUP3 PUSH1 0x1F DUP4 ADD SLT PUSH2 0xE38 JUMPI PUSH1 0x0 DUP1 REVERT JUMPDEST DUP2 CALLDATALOAD PUSH2 0xE4B PUSH2 0xE46 DUP3 PUSH2 0xDFF JUMP JUMPDEST PUSH2 0xDCE JUMP JUMPDEST DUP2 DUP2 MSTORE DUP5 PUSH1 0x20 DUP4 DUP7 ADD ADD GT ISZERO PUSH2 0xE60 JUMPI PUSH1 0x0 DUP1 REVERT JUMPDEST DUP2 PUSH1 0x20 DUP6 ADD PUSH1 0x20 DUP4 ADD CALLDATACOPY PUSH1 0x0 SWAP2 DUP2 ADD PUSH1 0x20 ADD SWAP2 SWAP1 SWAP2 MSTORE SWAP4 SWAP3 POP POP POP JUMP JUMPDEST PUSH1 0x0 PUSH1 0x20 DUP3 DUP5 SUB SLT ISZERO PUSH2 0xE8F JUMPI PUSH1 0x0 DUP1 REVERT JUMPDEST DUP2 CALLDATALOAD PUSH8 0xFFFFFFFFFFFFFFFF DUP2 GT ISZERO PUSH2 0xEA6 JUMPI PUSH1 0x0 DUP1 REVERT JUMPDEST PUSH2 0xEB2 DUP5 DUP3 DUP6 ADD PUSH2 0xE27 JUMP JUMPDEST SWAP5 SWAP4 POP POP POP POP JUMP JUMPDEST PUSH1 0x0 DUP2 MLOAD DUP1 DUP5 MSTORE PUSH1 0x20 DUP1 DUP6 ADD SWAP5 POP DUP1 DUP5 ADD PUSH1 0x0 JUMPDEST DUP4 DUP2 LT ISZERO PUSH2 0xEF3 JUMPI DUP2 MLOAD PUSH1 0x1 PUSH1 0x1 PUSH1 0xA0 SHL SUB AND DUP8 MSTORE SWAP6 DUP3 ADD SWAP6 SWAP1 DUP3 ADD SWAP1 PUSH1 0x1 ADD PUSH2 0xECE JUMP JUMPDEST POP SWAP5 SWAP6 SWAP5 POP POP POP POP POP JUMP JUMPDEST PUSH1 0x0 JUMPDEST DUP4 DUP2 LT ISZERO PUSH2 0xF19 JUMPI DUP2 DUP2 ADD MLOAD DUP4 DUP3 ADD MSTORE PUSH1 0x20 ADD PUSH2 0xF01 JUMP JUMPDEST DUP4 DUP2 GT ISZERO PUSH2 0xF28 JUMPI PUSH1 0x0 DUP5 DUP5 ADD MSTORE JUMPDEST POP POP POP POP JUMP JUMPDEST PUSH1 0x0 DUP2 MLOAD DUP1 DUP5 MSTORE PUSH2 0xF46 DUP2 PUSH1 0x20 DUP7 ADD PUSH1 0x20 DUP7 ADD PUSH2 0xEFE JUMP JUMPDEST PUSH1 0x1F ADD PUSH1 0x1F NOT AND SWAP3 SWAP1 SWAP3 ADD PUSH1 0x20 ADD SWAP3 SWAP2 POP POP JUMP JUMPDEST PUSH1 0xA0 DUP2 MSTORE PUSH1 0x0 PUSH2 0xF6D PUSH1 0xA0 DUP4 ADD DUP9 PUSH2 0xEBA JUMP JUMPDEST PUSH1 0x20 DUP4 DUP3 SUB DUP2 DUP6 ADD MSTORE DUP2 DUP9 MLOAD DUP1 DUP5 MSTORE DUP3 DUP5 ADD SWAP2 POP DUP3 DUP2 PUSH1 0x5 SHL DUP6 ADD ADD DUP4 DUP12 ADD PUSH1 0x0 JUMPDEST DUP4 DUP2 LT ISZERO PUSH2 0xFBD JUMPI PUSH1 0x1F NOT DUP8 DUP5 SUB ADD DUP6 MSTORE PUSH2 0xFAB DUP4 DUP4 MLOAD PUSH2 0xF2E JUMP JUMPDEST SWAP5 DUP7 ADD SWAP5 SWAP3 POP SWAP1 DUP6 ADD SWAP1 PUSH1 0x1 ADD PUSH2 0xF8F JUMP JUMPDEST POP POP PUSH1 0x1 PUSH1 0x1 PUSH1 0xA0 SHL SUB SWAP10 SWAP1 SWAP10 AND PUSH1 0x40 DUP8 ADD MSTORE POP POP POP POP PUSH1 0x60 DUP3 ADD SWAP4 SWAP1 SWAP4 MSTORE PUSH1 0x80 ADD MSTORE POP SWAP3 SWAP2 POP POP JUMP JUMPDEST PUSH1 0x1 PUSH1 0x1 PUSH1 0xA0 SHL SUB DUP2 AND DUP2 EQ PUSH2 0xFFC JUMPI PUSH1 0x0 DUP1 REVERT JUMPDEST POP JUMP JUMPDEST PUSH1 0x0 DUP1 PUSH1 0x0 DUP1 PUSH1 0x0 PUSH1 0x80 DUP7 DUP9 SUB SLT ISZERO PUSH2 0x1017 JUMPI PUSH1 0x0 DUP1 REVERT JUMPDEST DUP6 CALLDATALOAD PUSH2 0x1022 DUP2 PUSH2 0xFE7 JUMP JUMPDEST SWAP5 POP PUSH1 0x20 DUP7 ADD CALLDATALOAD SWAP4 POP PUSH1 0x40 DUP7 ADD CALLDATALOAD SWAP3 POP PUSH1 0x60 DUP7 ADD CALLDATALOAD PUSH8 0xFFFFFFFFFFFFFFFF DUP1 DUP3 GT ISZERO PUSH2 0x104D JUMPI PUSH1 0x0 DUP1 REVERT JUMPDEST DUP2 DUP9 ADD SWAP2 POP DUP9 PUSH1 0x1F DUP4 ADD SLT PUSH2 0x1061 JUMPI PUSH1 0x0 DUP1 REVERT JUMPDEST DUP2 CALLDATALOAD DUP2 DUP2 GT ISZERO PUSH2 0x1070 JUMPI PUSH1 0x0 DUP1 REVERT JUMPDEST DUP10 PUSH1 0x20 DUP3 DUP6 ADD ADD GT ISZERO PUSH2 0x1082 JUMPI PUSH1 0x0 DUP1 REVERT JUMPDEST SWAP7 SWAP10 SWAP6 SWAP9 POP SWAP4 SWAP7 POP PUSH1 0x20 ADD SWAP5 SWAP4 SWAP3 POP POP POP JUMP JUMPDEST PUSH1 0x0 DUP1 PUSH1 0x0 DUP1 PUSH1 0x80 DUP6 DUP8 SUB SLT ISZERO PUSH2 0x10AB JUMPI PUSH1 0x0 DUP1 REVERT JUMPDEST DUP5 CALLDATALOAD SWAP4 POP PUSH1 0x20 DUP6 ADD CALLDATALOAD SWAP3 POP PUSH1 0x40 DUP6 ADD CALLDATALOAD PUSH2 0x10C4 DUP2 PUSH2 0xFE7 JUMP JUMPDEST SWAP2 POP PUSH1 0x60 DUP6 ADD CALLDATALOAD PUSH8 0xFFFFFFFFFFFFFFFF DUP2 GT ISZERO PUSH2 0x10E0 JUMPI PUSH1 0x0 DUP1 REVERT JUMPDEST PUSH2 0x10EC DUP8 DUP3 DUP9 ADD PUSH2 0xE27 JUMP JUMPDEST SWAP2 POP POP SWAP3 SWAP6 SWAP2 SWAP5 POP SWAP3 POP JUMP JUMPDEST PUSH1 0x0 DUP1 PUSH1 0x0 PUSH1 0x60 DUP5 DUP7 SUB SLT ISZERO PUSH2 0x110D JUMPI PUSH1 0x0 DUP1 REVERT JUMPDEST DUP4 CALLDATALOAD PUSH2 0x1118 DUP2 PUSH2 0xFE7 JUMP JUMPDEST SWAP3 POP PUSH1 0x20 DUP5 ADD CALLDATALOAD PUSH2 0x1128 DUP2 PUSH2 0xFE7 JUMP JUMPDEST SWAP3 SWAP6 SWAP3 SWAP5 POP POP POP PUSH1 0x40 SWAP2 SWAP1 SWAP2 ADD CALLDATALOAD SWAP1 JUMP JUMPDEST PUSH1 0x0 DUP1 PUSH1 0x40 DUP4 DUP6 SUB SLT ISZERO PUSH2 0x114C JUMPI PUSH1 0x0 DUP1 REVERT JUMPDEST DUP3 CALLDATALOAD PUSH2 0x1157 DUP2 PUSH2 0xFE7 JUMP JUMPDEST SWAP5 PUSH1 0x20 SWAP4 SWAP1 SWAP4 ADD CALLDATALOAD SWAP4 POP POP POP JUMP JUMPDEST PUSH1 0x0 PUSH1 0x20 DUP3 DUP5 SUB SLT ISZERO PUSH2 0x1177 JUMPI PUSH1 0x0 DUP1 REVERT JUMPDEST DUP2 CALLDATALOAD PUSH2 0xDB1 DUP2 PUSH2 0xFE7 JUMP JUMPDEST DUP1 ISZERO ISZERO DUP2 EQ PUSH2 0xFFC JUMPI PUSH1 0x0 DUP1 REVERT JUMPDEST PUSH1 0x0 PUSH1 0x20 DUP3 DUP5 SUB SLT ISZERO PUSH2 0x11A2 JUMPI PUSH1 0x0 DUP1 REVERT JUMPDEST DUP2 CALLDATALOAD PUSH2 0xDB1 DUP2 PUSH2 0x1182 JUMP JUMPDEST PUSH1 0x0 PUSH8 0xFFFFFFFFFFFFFFFF DUP3 GT ISZERO PUSH2 0x11C7 JUMPI PUSH2 0x11C7 PUSH2 0xDB8 JUMP JUMPDEST POP PUSH1 0x5 SHL PUSH1 0x20 ADD SWAP1 JUMP JUMPDEST PUSH1 0x0 DUP3 PUSH1 0x1F DUP4 ADD SLT PUSH2 0x11E2 JUMPI PUSH1 0x0 DUP1 REVERT JUMPDEST DUP2 MLOAD PUSH1 0x20 PUSH2 0x11F2 PUSH2 0xE46 DUP4 PUSH2 0x11AD JUMP JUMPDEST DUP3 DUP2 MSTORE PUSH1 0x5 SWAP3 SWAP1 SWAP3 SHL DUP5 ADD DUP2 ADD SWAP2 DUP2 DUP2 ADD SWAP1 DUP7 DUP5 GT ISZERO PUSH2 0x1211 JUMPI PUSH1 0x0 DUP1 REVERT JUMPDEST DUP3 DUP7 ADD JUMPDEST DUP5 DUP2 LT ISZERO PUSH2 0x1235 JUMPI DUP1 MLOAD PUSH2 0x1228 DUP2 PUSH2 0xFE7 JUMP JUMPDEST DUP4 MSTORE SWAP2 DUP4 ADD SWAP2 DUP4 ADD PUSH2 0x1215 JUMP JUMPDEST POP SWAP7 SWAP6 POP POP POP POP POP POP JUMP JUMPDEST DUP1 MLOAD PUSH2 0x124B DUP2 PUSH2 0xFE7 JUMP JUMPDEST SWAP2 SWAP1 POP JUMP JUMPDEST PUSH1 0x0 DUP1 PUSH1 0x0 DUP1 PUSH1 0x0 PUSH1 0xA0 DUP7 DUP9 SUB SLT ISZERO PUSH2 0x1268 JUMPI PUSH1 0x0 DUP1 REVERT JUMPDEST DUP6 MLOAD PUSH8 0xFFFFFFFFFFFFFFFF DUP1 DUP3 GT ISZERO PUSH2 0x1280 JUMPI PUSH1 0x0 DUP1 REVERT JUMPDEST PUSH2 0x128C DUP10 DUP4 DUP11 ADD PUSH2 0x11D1 JUMP JUMPDEST SWAP7 POP PUSH1 0x20 DUP9 ADD MLOAD SWAP2 POP DUP1 DUP3 GT ISZERO PUSH2 0x12A2 JUMPI PUSH1 0x0 DUP1 REVERT JUMPDEST DUP2 DUP9 ADD SWAP2 POP DUP9 PUSH1 0x1F DUP4 ADD SLT PUSH2 0x12B6 JUMPI PUSH1 0x0 DUP1 REVERT JUMPDEST DUP2 MLOAD PUSH2 0x12C4 PUSH2 0xE46 DUP3 PUSH2 0x11AD JUMP JUMPDEST DUP1 DUP3 DUP3 MSTORE PUSH1 0x20 DUP3 ADD SWAP2 POP PUSH1 0x20 DUP4 PUSH1 0x5 SHL DUP7 ADD ADD SWAP3 POP DUP12 DUP4 GT ISZERO PUSH2 0x12E6 JUMPI PUSH1 0x0 DUP1 REVERT JUMPDEST PUSH1 0x20 DUP6 ADD JUMPDEST DUP4 DUP2 LT ISZERO PUSH2 0x135A JUMPI DUP1 MLOAD DUP6 DUP2 GT ISZERO PUSH2 0x1302 JUMPI PUSH1 0x0 DUP1 REVERT JUMPDEST DUP7 ADD PUSH1 0x3F DUP2 ADD DUP15 SGT PUSH2 0x1313 JUMPI PUSH1 0x0 DUP1 REVERT JUMPDEST PUSH1 0x20 DUP2 ADD MLOAD PUSH2 0x1324 PUSH2 0xE46 DUP3 PUSH2 0xDFF JUMP JUMPDEST DUP2 DUP2 MSTORE DUP16 PUSH1 0x40 DUP4 DUP6 ADD ADD GT ISZERO PUSH2 0x1339 JUMPI PUSH1 0x0 DUP1 REVERT JUMPDEST PUSH2 0x134A DUP3 PUSH1 0x20 DUP4 ADD PUSH1 0x40 DUP7 ADD PUSH2 0xEFE JUMP JUMPDEST DUP6 MSTORE POP POP PUSH1 0x20 SWAP3 DUP4 ADD SWAP3 ADD PUSH2 0x12EB JUMP JUMPDEST POP DUP1 SWAP9 POP POP POP POP POP POP PUSH2 0x136F PUSH1 0x40 DUP8 ADD PUSH2 0x1240 JUMP JUMPDEST PUSH1 0x60 DUP8 ADD MLOAD PUSH1 0x80 SWAP1 SWAP8 ADD MLOAD SWAP6 SWAP9 SWAP5 SWAP8 POP SWAP6 SWAP5 SWAP4 SWAP3 POP POP POP JUMP JUMPDEST PUSH1 0x0 PUSH1 0x20 DUP3 DUP5 SUB SLT ISZERO PUSH2 0x139A JUMPI PUSH1 0x0 DUP1 REVERT JUMPDEST DUP2 MLOAD PUSH2 0xDB1 DUP2 PUSH2 0xFE7 JUMP JUMPDEST DUP5 DUP2 MSTORE DUP4 PUSH1 0x20 DUP3 ADD MSTORE PUSH1 0x1 DUP1 PUSH1 0xA0 SHL SUB DUP4 AND PUSH1 0x40 DUP3 ADD MSTORE PUSH1 0x80 PUSH1 0x60 DUP3 ADD MSTORE PUSH1 0x0 PUSH2 0x13D2 PUSH1 0x80 DUP4 ADD DUP5 PUSH2 0xF2E JUMP JUMPDEST SWAP7 SWAP6 POP POP POP POP POP POP JUMP JUMPDEST PUSH1 0x0 PUSH1 0x20 DUP3 DUP5 SUB SLT ISZERO PUSH2 0x13EE JUMPI PUSH1 0x0 DUP1 REVERT JUMPDEST POP MLOAD SWAP2 SWAP1 POP JUMP JUMPDEST PUSH1 0x0 PUSH1 0x20 DUP3 DUP5 SUB SLT ISZERO PUSH2 0x1407 JUMPI PUSH1 0x0 DUP1 REVERT JUMPDEST DUP2 MLOAD PUSH2 0xDB1 DUP2 PUSH2 0x1182 JUMP JUMPDEST PUSH4 0x4E487B71 PUSH1 0xE0 SHL PUSH1 0x0 MSTORE PUSH1 0x32 PUSH1 0x4 MSTORE PUSH1 0x24 PUSH1 0x0 REVERT JUMPDEST PUSH1 0x0 PUSH1 0x20 DUP3 DUP5 SUB SLT ISZERO PUSH2 0x143A JUMPI PUSH1 0x0 DUP1 REVERT JUMPDEST DUP2 MLOAD PUSH8 0xFFFFFFFFFFFFFFFF DUP2 GT ISZERO PUSH2 0x1451 JUMPI PUSH1 0x0 DUP1 REVERT JUMPDEST PUSH2 0xEB2 DUP5 DUP3 DUP6 ADD PUSH2 0x11D1 JUMP JUMPDEST PUSH1 0x0 DUP3 MLOAD PUSH2 0x146F DUP2 DUP5 PUSH1 0x20 DUP8 ADD PUSH2 0xEFE JUMP JUMPDEST SWAP2 SWAP1 SWAP2 ADD SWAP3 SWAP2 POP POP JUMP JUMPDEST PUSH4 0x4E487B71 PUSH1 0xE0 SHL PUSH1 0x0 MSTORE PUSH1 0x11 PUSH1 0x4 MSTORE PUSH1 0x24 PUSH1 0x0 REVERT JUMPDEST PUSH1 0x0 DUP3 NOT DUP3 GT ISZERO PUSH2 0x14A2 JUMPI PUSH2 0x14A2 PUSH2 0x1479 JUMP JUMPDEST POP ADD SWAP1 JUMP JUMPDEST DUP6 DUP2 MSTORE PUSH1 0xFF DUP6 AND PUSH1 0x20 DUP3 ADD MSTORE PUSH1 0xA0 PUSH1 0x40 DUP3 ADD MSTORE PUSH1 0x0 PUSH2 0x14C9 PUSH1 0xA0 DUP4 ADD DUP7 PUSH2 0xEBA JUMP JUMPDEST PUSH1 0x1 PUSH1 0x1 PUSH1 0xA0 SHL SUB SWAP5 SWAP1 SWAP5 AND PUSH1 0x60 DUP4 ADD MSTORE POP PUSH1 0x80 ADD MSTORE SWAP4 SWAP3 POP POP POP JUMP JUMPDEST PUSH1 0x0 PUSH1 0x1 DUP3 ADD PUSH2 0x14F8 JUMPI PUSH2 0x14F8 PUSH2 0x1479 JUMP JUMPDEST POP PUSH1 0x1 ADD SWAP1 JUMP JUMPDEST PUSH1 0x0 DUP3 DUP3 LT ISZERO PUSH2 0x1511 JUMPI PUSH2 0x1511 PUSH2 0x1479 JUMP JUMPDEST POP SUB SWAP1 JUMP INVALID PUSH20 0x7761704578616374546F6B656E73466F72546F6B PUSH6 0x6E732875696E PUSH21 0x3235362C75696E743235362C616464726573735B5D 0x2C PUSH2 0x6464 PUSH19 0x6573732C75696E7432353629A2646970667358 0x22 SLT KECCAK256 SWAP10 ADD 0xAC 0xBA DUP4 MSTORE SWAP15 0xD4 0xE8 0xCC SMOD CODESIZE GAS 0xBF 0x4D 0xE1 JUMPDEST SWAP6 0xC6 0xD3 PUSH14 0xF99F1FA3977BEDAACA2564736F PUSH13 0x634300080E0033000000000000 ",
  "sha1": "ea78653d56c44b574d4fdc9a876561d8457ff1de",
  "source": "// SPDX-License-Identifier: UNLICENSED\n\npragma solidity ^0.8.0;\n\nimport \"./ArbV1.sol\";\n\ncontract BscArb is ArbV1 {\n    function pancakeCall (address /*sender*/, uint /*amount0*/, uint /*amount1*/, bytes calldata data) external {\n        _respond(data);\n    }\n\n    function swapV2Call (address /*sender*/, uint /*amount0*/, uint /*amount1*/, bytes calldata data) external {\n        _respond(data);\n    }\n\n    function BiswapCall (address /*sender*/, uint /*amount0*/, uint /*amount1*/, bytes calldata data) external {\n        _respond(data);\n    }\n\n    function babyCall (address /*sender*/, uint /*amount0*/, uint /*amount1*/, bytes calldata data) external {\n        _respond(data);\n    }\n\n    function apeCall (address /*sender*/, uint /*amount0*/, uint /*amount1*/, bytes calldata data) external {\n        _respond(data);\n    }\n\n    function uniswapV2Call (address /*sender*/, uint /*amount0*/, uint /*amount1*/, bytes calldata data) external {\n        _respond(data);\n    }\n\n    function fstswapCall (address /*sender*/, uint /*amount0*/, uint /*amount1*/, bytes calldata data) external {\n        _respond(data);\n    }\n\n    function SwapCall (address /*sender*/, uint /*amount0*/, uint /*amount1*/, bytes calldata data) external {\n        _respond(data);\n    }\n\n    function safeswapCall (address /*sender*/, uint /*amount0*/, uint /*amount1*/, bytes calldata data) external {\n        _respond(data);\n    }\n\n    function nomiswapCall (address /*sender*/, uint /*amount0*/, uint /*amount1*/, bytes calldata data) external {\n        _respond(data);\n    }\n\n    function jetswapCall (address /*sender*/, uint /*amount0*/, uint /*amount1*/, bytes calldata data) external {\n        _respond(data);\n    }\n}",
  "sourcePath": "contracts/BscArb.sol",
  "type": "contract"
}